:100000000C94A7000C94C4000C94C4000C94C4007D
:100010000C94C4000C94C4000C94C4000C94C40050
:100020000C94C4000C94C4000C94C4000C94C40040
:100030000C94C4000C940B2F0C94C4000C94C400BA
:100040000C94C4000C94C4000C94C4000C94C40020
:100050000C94C40000407A10F35A00A0724E1809A4
:100060000010A5D4E80000E87648170000E40B541F
:10007000020000CA9A3B000000E1F50500008096EE
:100080009800000040420F000000A0860100000020
:10009000102700000000E8030000000064000000DA
:1000A00000000A00000000000100000000002C76A3
:1000B000D888DC674F0823DFC1DFAE59E1B1B796BE
:1000C000E5E3E453C63AE651997696E8E6C284261B
:1000D000EB898C9B62ED407C6FFCEFBC9C9F40F2F7
:1000E000BAA56FA5F490055A2AF75C936B6CF96773
:1000F0006DC11BFCE0E40D47FEF520E6B500D0ED38
:10010000902E0300943577050080841E080000209F
:100110004E0A000000C80C333333330F986E12833D
:100120001141EF8D2114893BE65516CFFEE6DB1811
:10013000D1844B381BF77C1D901DA4BBE4242032D6
:1001400084725E228100C9F124ECA1E53D271124CF
:100150001FBECFE5D8E0DEBFCDBF15E0A0E6B0E022
:10016000E6EBFFE702C005900D92A032B107D9F788
:1001700017E0A0E2B5E001C01D92A93DB107E1F78B
:100180000E94D6270C94D93F0C940000EF92FF9266
:100190000F931F937B018C0120E030E040E05FE48F
:1001A0000E94720488238CF0C801B70120E030E07F
:1001B00040E05FE40E943E020E9430059B01AC01DA
:1001C000205030404040504806C0C801B7010E944E
:1001D00030059B01AC01B901CA011F910F91FF903D
:1001E000EF900895A0E0B0E0E8EFF0E00C94E23981
:1001F000DC012B01FA019C91923008F439C1EB012A
:100200008881823008F433C1943069F4843009F075
:100210002FC111969C9111978981981709F428C1D3
:10022000A5E1B4E025C1843009F421C18230A9F4EC
:10023000923009F01DC19A01AD0188E0EA010990F0
:10024000AE01E90109929E018150C1F7E201898165
:1002500011969C918923818308C1923009F407C1CA
:1002600012962D903C901397EB018A819B811496F6
:10027000AD90BD90CD90DC901797EC80FD800E8105
:100280001F819101281B390BB90137FF04C0662774
:100290007727621B730B603271050CF061C0121678
:1002A00013066CF537014801062E04C09694879416
:1002B000779467940A94D2F721E030E040E050E070
:1002C00004C0220F331F441F551F6A95D2F72150D7
:1002D0003040404050402E213F21402351232115E2
:1002E00031054105510521F021E030E040E050E0CA
:1002F00079018A01E628F728082919293CC0232B0F
:10030000D1F1260E371E35014601062E04C0969403
:100310008794779467940A94D2F721E030E040E024
:1003200050E004C0220F331F441F551F6A95D2F7B7
:1003300021503040404050402A213B214C215D213A
:10034000211531054105510521F021E030E040E063
:1003500050E059016A01A628B728C828D9280BC03F
:10036000821593052CF01C01AA24BB24650103C04F
:10037000EE24FF24870111969C91D20111968C9155
:10038000981709F445C0992339F0A80197012A1953
:100390003B094C095D0906C0A60195012E193F09CC
:1003A000400B510B57FD08C01182338222822483F7
:1003B0003583468357831DC081E081833382228247
:1003C00088279927DC01821B930BA40BB50B848330
:1003D0009583A683B7830DC0220F331F441F551F7B
:1003E0002483358346835783828193810197938346
:1003F00082832481358146815781DA01C9010197C1
:10040000A109B1098F5F9F4FAF4FBF4328F30BC0C6
:10041000918333822282EA0CFB1C0C1D1D1DE48299
:10042000F5820683178383E08083248135814681AA
:10043000578157FF1AC0C901AA2797FDA095BA2F67
:1004400081709070A070B07056954795379527953C
:10045000822B932BA42BB52B84839583A683B78300
:1004600082819381019693838283DF0101C0D2014F
:10047000CD01CDB7DEB7E2E10C94FE39A0E2B0E0E9
:10048000E4E4F2E00C94EE3969837A838B839C83F5
:100490002D833E834F835887E9E0EE2EF12CEC0E3E
:1004A000FD1ECE010196B7010E94A8068E010F5EC7
:1004B0001F4FCE010596B8010E94A8068A8991E0D7
:1004C00089278A8BC701B801AE01475E5F4F0E9442
:1004D000F2000E94D305A096E6E00C940A3AA0E24E
:1004E000B0E0E5E7F2E00C94EE3969837A838B8320
:1004F0009C832D833E834F835887F9E0EF2EF12CA8
:10050000EC0EFD1ECE010196B7010E94A8068E01D9
:100510000F5E1F4FCE010596B8010E94A806C701C5
:10052000B801AE01475E5F4F0E94F2000E94D30502
:10053000A096E6E00C940A3AA0E2B0E0E2EAF2E02B
:100540000C94E23969837A838B839C832D833E8369
:100550004F835887CE010196BE01675F7F4F0E948F
:10056000A806CE010596BE016F5E7F4F0E94A806C9
:100570009985923088F089898230C8F0943019F4D6
:10058000823051F404C0843029F4923081F485E142
:1005900094E0C6C0923049F420E09A858A89981385
:1005A00021E02A87CE010996BBC0823049F420E0C1
:1005B0009A858A89981321E02A8BCE014196B0C092
:1005C0002D843E844F8458886D887E888F88988CCF
:1005D000EE24FF248701AA24BB24650140E050E0FB
:1005E00060E070E0E0E0F0E0C10181709070892B84
:1005F000E9F0E60CF71C081D191D9A01AB012A0D44
:100600003B1D4C1D5D1D80E090E0A0E0B0E0E614D5
:10061000F7040805190520F481E090E0A0E0B0E0BF
:10062000BA01A901480F591F6A1F7B1FAA0CBB1CE6
:10063000CC1CDD1C97FE08C081E090E0A0E0B0E09B
:10064000A82AB92ACA2ADB2A3196E032F10549F0F4
:10065000660C771C881C991C5694479437942794F1
:10066000C3CFFA85EA892B893C898B859C85280F25
:10067000391F2E5F3F4F17C0CA0181709070892BC0
:1006800061F016950795F794E79480E090E0A0E07C
:10069000B0E8E82AF92A0A2B1B2B7695679557951F
:1006A00047952F5F3F4F77FDE7CF0CC0440F551F95
:1006B000661F771F17FD4160EE0CFF1C001F111F06
:1006C00021503040403090E0590790E0690790E4B5
:1006D000790760F32B8F3C8FDB01CA018F77907015
:1006E000A070B07080349105A105B10561F447FD9B
:1006F0000AC0E114F1040105110529F0405C5F4FC7
:100700006F4F7F4F40781A8EFE1711F081E08A8F6D
:100710004D8F5E8F6F8F78A383E0898FCE014996CE
:100720000E94D305A096E2E10C94FE39A8E1B0E066
:10073000ECE9F3E00C94EA3969837A838B839C8338
:100740002D833E834F835887B9E0EB2EF12CEC0EBE
:10075000FD1ECE010196B7010E94A8068E010F5E14
:100760001F4FCE010596B8010E94A80629852230A8
:1007700008F47EC03989323010F4B8017CC08A8513
:100780009A8989278A87243011F0223031F423177F
:1007900009F06EC065E174E06EC0343039F41D8636
:1007A0001E861F86188A1C861B8604C0323021F4E0
:1007B00084E08987B7015FC02B853C858B899C8944
:1007C000281B390B3C872B87ED84FE840F85188905
:1007D000AD88BE88CF88D88CEA14FB040C051D05B3
:1007E00040F4EE0CFF1C001F111F215030403C87CD
:1007F0002B8720E030E040E050E080E090E0A0E097
:10080000B0E460E070E0EA14FB040C051D0540F064
:10081000282B392B4A2B5B2BEA18FB080C091D09E6
:10082000B695A79597958795EE0CFF1C001F111F95
:100830006F5F7F4F6F31710531F7DA01C9018F7733
:100840009070A070B07080349105A105B10561F47D
:1008500027FD0AC0E114F1040105110529F0205C0F
:100860003F4F4F4F5F4F20782D873E874F87588BE4
:10087000BE01675F7F4FCB010E94D3056896EAE017
:100880000C94063AA8E1B0E0E8E4F4E00C94EE3908
:1008900069837A838B839C832D833E834F83588720
:1008A00089E0E82EF12CEC0EFD1ECE010196B70179
:1008B0000E94A8068E010F5E1F4FCE010596B8015B
:1008C0000E94A8068985823040F08989823028F00C
:1008D000C701B8010E94200701C08FEF6896E6E0CB
:1008E0000C940A3AA8E1B0E0E8E7F4E00C94EE39A1
:1008F00069837A838B839C832D833E834F835887C0
:1009000089E0E82EF12CEC0EFD1ECE010196B70118
:100910000E94A8068E010F5E1F4FCE010596B801FA
:100920000E94A8068985823040F08989823028F0AB
:10093000C701B8010E94200701C08FEF6896E6E06A
:100940000C940A3AA8E1B0E0E8EAF4E00C94EE393D
:1009500069837A838B839C832D833E834F8358875F
:1009600089E0E82EF12CEC0EFD1ECE010196B701B8
:100970000E94A8068E010F5E1F4FCE010596B8019A
:100980000E94A8068985823040F08989823028F04B
:10099000C701B8010E94200701C081E06896E6E027
:1009A0000C940A3AA8E0B0E0E8EDF4E00C94EB39DE
:1009B0009B01AC0183E08983DA01C9018827B7FD77
:1009C00083959927AA27BB27B82E21153105410504
:1009D000510519F482E089833AC08823A9F02030B8
:1009E00080E0380780E0480780E8580729F460E095
:1009F00070E080E09FEC30C0EE24FF248701E21A13
:100A0000F30A040B150B02C079018A018EE1C82E8E
:100A1000D12CDC82CB82ED82FE820F831887C80145
:100A2000B7010E94840501971816190684F4082E50
:100A300004C0EE0CFF1C001F111F0A94D2F7ED82B8
:100A4000FE820F831887C81AD90ADC82CB82BA8249
:100A5000CE0101960E94D3052896E9E00C94073A4E
:100A6000ACE0B0E0E6E3F5E00C94F23969837A8318
:100A70008B839C83CE010196BE016B5F7F4F0E94EA
:100A8000A8068D81823061F1823050F1843021F4EA
:100A90008E81882351F12EC02F81388537FD20C0EB
:100AA0006E812F3131051CF06623F9F023C08EE1F1
:100AB00090E0821B930B29853A854B855C8504C0A9
:100AC00056954795379527958A95D2F76623B1F0C5
:100AD00050954095309521953F4F4F4F5F4F0EC039
:100AE00020E030E040E050E009C02FEF3FEF4FEF53
:100AF0005FE704C020E030E040E050E8B901CA01FF
:100B00002C96E2E00C940E3AEF92FF920F931F9313
:100B10007B018C0180E0E81680E0F80681E00807A0
:100B200080E0180788F48FEFE816F104010511053D
:100B300031F028F088E090E0A0E0B0E017C080E05D
:100B400090E0A0E0B0E012C080E0E81680E0F80697
:100B500080E0080781E0180728F088E190E0A0E035
:100B6000B0E004C080E190E0A0E0B0E020E230E03E
:100B700040E050E0281B390B4A0B5B0B04C0169574
:100B80000795F794E7948A95D2F7F701E35EFB4F58
:100B90008081281B310941095109C9011F910F9119
:100BA000FF90EF900895DF92EF92FF920F931F93C3
:100BB000FC01E480F58006811781D180808182303C
:100BC00048F480E090E0A0E1B0E0E82AF92A0A2B9E
:100BD0001B2BA5C0843009F49FC0823021F4EE2481
:100BE000FF24870105C0E114F1040105110519F482
:100BF000E0E0F0E096C0628173819FEF6238790790
:100C00000CF05BC022E83FEF261B370B2A31310581
:100C10002CF020E030E040E050E02AC0B801A7010D
:100C2000022E04C076956795579547950A94D2F79A
:100C300081E090E0A0E0B0E004C0880F991FAA1FF7
:100C4000BB1F2A95D2F70197A109B1098E219F21D7
:100C5000A023B1230097A105B10521F081E090E028
:100C6000A0E0B0E09A01AB01282B392B4A2B5B2B7B
:100C7000DA01C9018F779070A070B070803491054F
:100C8000A105B10539F427FF09C0205C3F4F4F4F44
:100C90005F4F04C0215C3F4F4F4F5F4FE0E0F0E0FB
:100CA0002030A0E03A07A0E04A07A0E45A0710F07D
:100CB000E1E0F0E079018A0127C06038710564F550
:100CC000FB01E158FF4FD801C7018F779070A070EA
:100CD000B07080349105A105B10539F4E7FE0DC06F
:100CE00080E490E0A0E0B0E004C08FE390E0A0E0FA
:100CF000B0E0E80EF91E0A1F1B1F17FF05C016956E
:100D00000795F794E794319687E016950795F79441
:100D1000E7948A95D1F705C0EE24FF248701EFEF11
:100D2000F0E06E2F679566276795902F9F77D79491
:100D3000DD24D7948E2F8695492F462B582F5D2979
:100D4000B701CA011F910F91FF90EF90DF900895B6
:100D5000FC01DB01408151812281622F6F7770E0BD
:100D6000221F2227221F9381892F880F822B282F51
:100D700030E0991F9927991F11969C93119721157F
:100D80003105A9F5411551056105710511F482E0A0
:100D900037C082E89FEF13969C938E9312979A0127
:100DA000AB0167E0220F331F441F551F6A95D1F72F
:100DB00083E08C930DC0220F331F441F551F1296E2
:100DC0008D919C911397019713969C938E931297F4
:100DD000203080E0380780E0480780E4580758F367
:100DE00014962D933D934D935C93179708952F3F41
:100DF000310579F4411551056105710519F484E057
:100E00008C93089564FF03C081E08C9312C01C9200
:100E100010C02F57304013963C932E93129783E0C7
:100E20008C9387E0440F551F661F771F8A95D1F773
:100E3000706414964D935D936D937C93179708950A
:100E40001F93DC01FB019C91923008F447C0808124
:100E5000823008F443C0943051F411961C918430D0
:100E600099F58181682F70E0611B71093FC0843062
:100E700021F0923031F48230B9F18181882389F1F7
:100E80002DC011961C9111978230F1F081811817B5
:100E9000D9F412962D913C911397828193818217F8
:100EA000930794F028173907BCF014968D919D9103
:100EB0000D90BC91A02D2481358146815781281742
:100EC00039074A075B0718F4112341F00AC082175B
:100ED0009307A407B50740F4112319F061E070E00F
:100EE00005C06FEF7FEF02C060E070E0CB011F91A3
:100EF0000895DF93CF9300D000D0CDB7DEB78983BC
:100F00006A838981282F30E03C832B838B819C81ED
:100F100081309105D1F02B813C81223031052CF4B8
:100F20008B819C81009761F01EC02B813C81223017
:100F3000310581F08B819C818330910581F013C054
:100F4000EAE3F0E08A8180830EC0E7E3F0E08A8183
:100F5000808309C0E4E3F0E08A81808304C0E1E398
:100F6000F0E08A8180830F900F900F900F90CF91C7
:100F7000DF910895DF93CF9300D000D0CDB7DEB7D7
:100F800089836A838981282F30E03C832B838B817E
:100F90009C8181309105D1F02B813C81223031053B
:100FA0002CF48B819C81009761F01EC02B813C81C9
:100FB0002230310581F08B819C818330910581F055
:100FC00013C0EBE3F0E08A8180830EC0E8E3F0E039
:100FD0008A81808309C0E5E3F0E08A81808304C0D0
:100FE000E2E3F0E08A8180830F900F900F900F90E2
:100FF000CF91DF910895DF93CF9300D000D00F926F
:10100000CDB7DEB789836A834B838981282F30E08F
:101010003D832C838C819D818130910509F447C0EB
:101020002C813D81223031052CF48C819D810097EB
:1010300071F0CBC02C813D812230310509F467C0AD
:101040008C819D818330910509F491C0BEC08B8154
:101050008130A1F4AAE3B0E0EAE3F0E08081482F18
:101060008A81282F30E081E090E0022E02C0880FB4
:10107000991F0A94E2F7842B8C93A7C08B81882355
:1010800009F0A3C0AAE3B0E0EAE3F0E08081482FD2
:101090008A81282F30E081E090E0022E02C0880F84
:1010A000991F0A94E2F7809584238C938EC08B81DC
:1010B0008130A1F4A7E3B0E0E7E3F0E08081482FBE
:1010C0008A81282F30E081E090E0022E02C0880F54
:1010D000991F0A94E2F7842B8C9377C08B81882325
:1010E00009F073C0A7E3B0E0E7E3F0E08081482FA8
:1010F0008A81282F30E081E090E0022E02C0880F24
:10110000991F0A94E2F7809584238C935EC08B81AB
:101110008130A1F4A4E3B0E0E4E3F0E08081482F63
:101120008A81282F30E081E090E0022E02C0880FF3
:10113000991F0A94E2F7842B8C9347C08B818823F4
:1011400009F043C0A4E3B0E0E4E3F0E08081482F7D
:101150008A81282F30E081E090E0022E02C0880FC3
:10116000991F0A94E2F7809584238C932EC08B817B
:101170008130A1F4A1E3B0E0E1E3F0E08081482F09
:101180008A81282F30E081E090E0022E02C0880F93
:10119000991F0A94E2F7842B8C9317C08B818823C4
:1011A000A1F4A1E3B0E0E1E3F0E08081482F8A817F
:1011B000282F30E081E090E0022E02C0880F991FB6
:1011C0000A94E2F7809584238C930F900F900F90F0
:1011D0000F900F90CF91DF910895DF93CF9300D0C0
:1011E00000D00F92CDB7DEB789836A834B838981A4
:1011F000282F30E03D832C838C819D8181309105A7
:1012000009F447C02C813D81223031052CF48C81BA
:101210009D81009771F0CBC02C813D81223031053A
:1012200009F467C08C819D818330910509F491C0D8
:10123000BEC08B818130A1F4ABE3B0E0EBE3F0E022
:101240008081482F8A81282F30E081E090E0022EB3
:1012500002C0880F991F0A94E2F7842B8C93A7C0D1
:101260008B81882309F0A3C0ABE3B0E0EBE3F0E0AF
:101270008081482F8A81282F30E081E090E0022E83
:1012800002C0880F991F0A94E2F7809584238C93FB
:101290008EC08B818130A1F4A8E3B0E0E8E3F0E0F8
:1012A0008081482F8A81282F30E081E090E0022E53
:1012B00002C0880F991F0A94E2F7842B8C9377C0A1
:1012C0008B81882309F073C0A8E3B0E0E8E3F0E085
:1012D0008081482F8A81282F30E081E090E0022E23
:1012E00002C0880F991F0A94E2F7809584238C939B
:1012F0005EC08B818130A1F4A5E3B0E0E5E3F0E0CE
:101300008081482F8A81282F30E081E090E0022EF2
:1013100002C0880F991F0A94E2F7842B8C9347C070
:101320008B81882309F043C0A5E3B0E0E5E3F0E05A
:101330008081482F8A81282F30E081E090E0022EC2
:1013400002C0880F991F0A94E2F7809584238C933A
:101350002EC08B818130A1F4A2E3B0E0E2E3F0E0A3
:101360008081482F8A81282F30E081E090E0022E92
:1013700002C0880F991F0A94E2F7842B8C9317C040
:101380008B818823A1F4A2E3B0E0E2E3F0E0808166
:10139000482F8A81282F30E081E090E0022E02C0A1
:1013A000880F991F0A94E2F7809584238C930F90FD
:1013B0000F900F900F900F90CF91DF910895DF93D2
:1013C000CF9300D000D0CDB7DEB78A838A81282F93
:1013D00030E03C832B838B819C8181309105D1F05F
:1013E0002B813C81223031052CF48B819C8100972C
:1013F00061F01EC02B813C812230310581F08B8150
:101400009C818330910581F013C0E9E3F0E0808195
:1014100089830EC0E6E3F0E08081898309C0E3E3BD
:10142000F0E08081898304C0E0E3F0E0808189837B
:1014300089810F900F900F900F90CF91DF910895B9
:10144000DF93CF9300D000D00F92CDB7DEB78A8361
:101450006B838A81282F30E03D832C834C815D8112
:101460004130510541F18C819D818230910534F4E8
:101470002C813D812115310561F052C04C815D8187
:101480004230510551F18C819D8183309105B9F134
:1014900047C0E9E3F0E08081282F30E08B81882F7E
:1014A00090E0A90102C0559547958A95E2F7CA01D7
:1014B0008170898335C0E6E3F0E08081282F30E039
:1014C0008B81882F90E0A90102C0559547958A9598
:1014D000E2F7CA018170898323C0E3E3F0E08081F1
:1014E000282F30E08B81882F90E0A90102C055950C
:1014F00047958A95E2F7CA018170898311C0E0E3BC
:10150000F0E08081282F30E08B81882F90E0A901C6
:1015100002C0559547958A95E2F7CA018170898383
:1015200089810F900F900F900F900F90CF91DF91C6
:101530000895DF93CF93CDB7DEB7E0E2F0E087E028
:101540008083A1E2B0E0E1E2F0E080818C7F8C93C7
:10155000E6E5F0E084E08083CF91DF910895DF93AA
:10156000CF93CDB7DEB7E2E2F0E082E08083E6E53C
:10157000F0E084E08083CF91DF910895DF93CF93F3
:10158000CDB7DEB7E6E5F0E084EA8083E6E5F0E09B
:1015900080818823DCF7E1E2F0E08081882F90E011
:1015A000887F907088309105B1F7CF91DF910895D1
:1015B000DF93CF93CDB7DEB7E6E5F0E084EA808332
:1015C000E6E5F0E080818823DCF7E1E2F0E080816D
:1015D000882F90E0887F907080319105B1F7CF918E
:1015E000DF910895DF93CF930F92CDB7DEB7898354
:1015F000E3E2F0E08981880F8083E6E5F0E084E8AB
:101600008083E6E5F0E080818823DCF7E1E2F0E02A
:101610008081882F90E0887F907088319105B1F7A4
:101620000F90CF91DF910895DF93CF930F92CDB7B5
:10163000DEB78983E3E2F0E08981880F8083A3E24B
:10164000B0E0E3E2F0E0808181608C93E6E5F0E0D9
:1016500084E88083E6E5F0E080818823DCF7E1E23E
:10166000F0E08081882F90E0887F90708034910531
:10167000B1F70F90CF91DF910895DF93CF930F9241
:10168000CDB7DEB78983E3E2F0E089818083E6E5C8
:10169000F0E084E88083E6E5F0E080818823DCF7F1
:1016A000E1E2F0E08081882F90E0887F90708832BE
:1016B0009105B1F70F90CF91DF910895DF93CF930C
:1016C000CDB7DEB7E6E5F0E084E88083E6E5F0E05C
:1016D00080818823DCF7E1E2F0E08081882F90E0D0
:1016E000887F907088359105B1F7E3E2F0E0808162
:1016F000CF91DF910895DF93CF93CDB7DEB7E6E5C5
:10170000F0E084E98083CF91DF910895DF93CF9358
:10171000CDB7DEB7E6E5F0E084EC8083E6E5F0E007
:1017200080818823DCF7E1E2F0E08081882F90E07F
:10173000887F907080369105B1F7CF91DF91089541
:10174000DF93CF93CDB7DEB7E6E5F0E084EC80839E
:10175000E6E5F0E080818823DCF7E1E2F0E08081DB
:10176000882F90E0887F9070883A9105B1F7CF91EB
:10177000DF910895DF93CF93CDB7DEB7E6E5F0E0D4
:1017800084EC8083E6E5F0E080818823DCF7E1E209
:10179000F0E08081882F90E0887F907080389105FC
:1017A000B1F7E3E2F0E08081CF91DF910895DF931C
:1017B000CF930F92CDB7DEB78983E3E2F0E0898162
:1017C0008083E6E5F0E084EC8083E6E5F0E080816C
:1017D0008823DCF7E1E2F0E08081882F90E0887FC9
:1017E0009070803C9105B1F70F90CF91DF910895F3
:1017F0000F931F93DF93CF9300D000D0CDB7DEB708
:1018000069837A838B839C83AAE2B0E0EAE2F0E00A
:10181000808188698C93A0E4B0E0E0E4F0E080810E
:1018200086688C9309E210E089819A81AB81BC8142
:10183000880F991FAA1FBB1F880F991FAA1FBB1FC4
:10184000880F991FAA1FBB1F880F991FAA1FBB1FB4
:101850009C01AD0180E092E1AAE7B0E0BC01CD01BE
:101860000E94AC39DA01C9018150F801808300E49B
:1018700010E089819A81AB81BC81880F991FAA1FD2
:10188000BB1F880F991FAA1FBB1F880F991FAA1F74
:10189000BB1F880F991FAA1FBB1F9C01AD0180E0D1
:1018A00092E1AAE7B0E0BC01CD010E94AC39DA01B7
:1018B000C9010197A109B109892F9A2FAB2FBB2725
:1018C000F80180830F900F900F900F90CF91DF91D0
:1018D0001F910F910895DF93CF93CDB7DEB7EBE261
:1018E000F0E080818823DCF7ECE2F0E08081CF91AA
:1018F000DF910895DF93CF930F92CDB7DEB7898341
:10190000ECE2F0E089818083EBE2F0E08081882FD7
:1019100090E0807290700097B9F30F90CF91DF91B3
:101920000895DF93CF9300D000D0CDB7DEB79C836E
:101930008B831A8219820FC029813A818B819C8105
:10194000FC01E20FF31F80810E947A0C89819A8149
:1019500001969A83898329813A818B819C81FC013C
:10196000E20FF31F8081882339F70F900F900F90BB
:101970000F90CF91DF910895DF93CF93CDB7DEB76E
:101980000E94990ACF91DF910895DF93CF9300D001
:101990000F92CDB7DEB79A8389836B830E94BE0A0C
:1019A00080E50E94F20A89810E943D0B8B810E9492
:1019B0003D0B0E947B0B0F900F900F90CF91DF910A
:1019C0000895DF93CF9300D00F92CDB7DEB79B83FE
:1019D0008A830E94BE0A80E50E94F20A8A810E94E0
:1019E0003D0B0E94D80A80E50E94140B0E945E0BFA
:1019F00089830E947B0B89810F900F900F90CF916C
:101A0000DF910895EF92FF920F931F93DF93CF938F
:101A1000CDB7DEB762970FB6F894DEBF0FBECDBF6D
:101A20009E878D8780E090E0A0E0B0E089879A876C
:101A3000AB87BC8718861F8280E090E0A0E8BFE3F8
:101A40008B839C83AD83BE831A821982ED85FE85CC
:101A500080818D3209F07FC08D859E8501969E879D
:101A60008D8781E090E09A83898375C08F81988506
:101A70000097C9F16B817C818D819E8120E030E0EF
:101A800040E251E40E949603DC01CB018B839C83EE
:101A9000AD83BE83ED85FE858081882F90E0C09761
:101AA000AA2797FDA095BA2FBC01CD010E94D204B0
:101AB000DC01CB01BC01CD012B813C814D815E81DC
:101AC0000E949C02DC01CB019C01AD0169857A85F5
:101AD0008B859C850E946F02DC01CB0189879A87E8
:101AE000AB87BC8733C0ED85FE8580818E3231F4B3
:101AF0008F819885019698878F8328C069857A851C
:101B00008B859C8520E030E040E251E40E949C02FD
:101B1000DC01CB017C018D01ED85FE858081882F64
:101B200090E0C097AA2797FDA095BA2FBC01CD01E0
:101B30000E94D2049B01AC01C801B7010E946F0250
:101B4000DC01CB0189879A87AB87BC878D859E8511
:101B500001969E878D87ED85FE858081882309F01B
:101B600085CF89819A81009761F089859A85AB85B7
:101B7000BC859C01AD0150582F87388B498B5A8BFF
:101B800008C089859A85AB85BC858F87988BA98B82
:101B9000BA8B8F859889A989BA89BC01CD016296D3
:101BA0000FB6F894DEBF0FBECDBFCF91DF911F916E
:101BB0000F91FF90EF900895DF93CF9300D0CDB7B2
:101BC000DEB7F8941A82198214C08A81282F30E077
:101BD0008981882F90E0FC01EB5CFA4F8081F9014C
:101BE000E251FA4F80838A818F5F8A8389818F5F78
:101BF00089838981882F90E0FC01EB5CFA4F80811A
:101C00008C3219F70E94FE0E78940F900F90CF91AE
:101C1000DF910895DF93CF9300D000D0CDB7DEB72A
:101C20009C838B83F8948B818F5F89831A8214C085
:101C30008A81282F30E08981882F90E0FC01EB5CBD
:101C4000FA4F8081F901EC5FF94F80838A818F5FC1
:101C50008A8389818F5F89838981882F90E0FC0145
:101C6000EB5CFA4F80818C3219F78A81282F30E0A3
:101C70008981882F90E0FC01EB5CFA4F8081F901AB
:101C8000EC5FF94F80838A818F5F8A8389818F5FC0
:101C900089838A81282F30E08981882F90E0FC0198
:101CA000EB5CFA4F8081F901EC5FF94F808384E0AF
:101CB00096E00E94880F78940F900F900F900F90ED
:101CC000CF91DF910895DF93CF9300D000D0CDB7AF
:101CD000DEB79C838B83F8948B818F5F89831A8214
:101CE00014C08A81282F30E08981882F90E0FC0180
:101CF000EB5CFA4F8081F901E152FA4F80838A81CF
:101D00008F5F8A8389818F5F89838981882F90E0A3
:101D1000FC01EB5CFA4F80818C3219F78A81282F05
:101D200030E08981882F90E0FC01EB5CFA4F8081E4
:101D3000F901E152FA4F80838A818F5F8A8389811A
:101D40008F5F89838A81282F30E08981882F90E0F6
:101D5000FC01EB5CFA4F8081F901E152FA4F80837C
:101D60008FED95E00E94880F78940F900F900F9060
:101D70000F90CF91DF910895DF93CF9300D000D0E3
:101D8000CDB7DEB79C838B83F8948B818F5F89837B
:101D90001A8214C08A81282F30E08981882F90E030
:101DA000FC01EB5CFA4F8081F901E95DF94F80831A
:101DB0008A818F5F8A8389818F5F89838981882F58
:101DC00090E0FC01EB5CFA4F80818C3219F78A813C
:101DD000282F30E08981882F90E00196FC01EB5C90
:101DE000FA4F8081F901E95DF94F808378940F9073
:101DF0000F900F900F90CF91DF910895DF93CF93C5
:101E0000CDB7DEB72A970FB6F894DEBF0FBECDBFB1
:101E10008EEE95E00E94583ADC01CB0189839A83CB
:101E2000AB83BC8389819A81AB81BC8120E137E29D
:101E300040E050E0BC01CD010E94AC39DA01C9019B
:101E40009A87898789819A81AB81BC8120E137E2B9
:101E500040E050E0BC01CD010E94AC39DC01CB0177
:101E600024E630E040E050E0BC01CD010E94AC39F6
:101E7000DA01C90198878F8389819A81AB81BC81FE
:101E800020E137E240E050E0BC01CD010E94AC39D6
:101E9000DC01CB0124E630E040E050E0BC01CD01A4
:101EA0000E94AC39DC01CB019E838D838DB79EB738
:101EB0000A970FB6F8949EBF0FBE8DBFEDB7FEB761
:101EC00031968EEE95E09183808380E690E0938357
:101ED000828389859A85958384838F81988597836A
:101EE00086838D819E81918780870E94FE3A8DB77F
:101EF0009EB70A960FB6F8949EBF0FBE8DBF2A9666
:101F00000FB6F894DEBF0FBECDBFCF91DF9108951D
:101F10000F931F93DF93CF93CDB7DEB766970FB6BE
:101F2000F894DEBF0FBECDBF9E8B8D8B8D899E89B1
:101F30000E94020DDC01CB01898B9A8BAB8BBC8B91
:101F400069897A898B899C8920E030E048EC52E4E9
:101F50000E949603DC01CB018D879E87AF87B88BEB
:101F60006D857E858F8598890E943005DC01CB01C7
:101F7000AA2797FDA095BA2F8D839E83AF83B8873C
:101F80006D857E858F8598890E943005DC01CB01A7
:101F9000AA2797FDA095BA2FBC01CD010E94D204BB
:101FA0009B01AC016D857E858F8598890E943E02DC
:101FB000DC01CB01BC01CD012AE939E949E15FE34C
:101FC0000E949603DC01CB0189879A87AB87BC8787
:101FD0006D817E818F8198850E94D204DC01CB01C6
:101FE000BC01CD0129853A854B855C850E946F0235
:101FF000DC01CB0189839A83AB83BC8389819A817D
:10200000AB81BC81EBECF5E0BC01CD0146E024E006
:102010008F010E94193A66960FB6F894DEBF0FBE84
:10202000CDBFCF91DF911F910F910895DF93CF9393
:10203000CDB7DEB7A6970FB6F894DEBF0FBECDBF03
:102040001BA21CA21DA21EA280912605909127050D
:10205000A0912805B09129059C01AD01205F384D64
:102060004F4F5F4F8BA19CA1ADA1BEA182179307DB
:10207000A407B50770F01092230510922605109260
:102080002705109228051092290582E08093F70613
:1020900085C18091F706843061F410922A058BE2A5
:1020A00095E060E070E042E050E00E949A3A1092C1
:1020B000F7068FE296E00E94A13ACC01A0E0B0E0E2
:1020C0008F8F98A3A9A3BAA38F8D98A1A9A1BAA114
:1020D0000097A105B10509F4E3C080E090E0A0E815
:1020E000BFE3898F9A8FAB8FBC8F698D7A8D8B8D73
:1020F0009C8D20E030E04AEF54E40E949C02DC0119
:10210000CB018D8B9E8BAF8BB88F6D897E898F892C
:10211000988D20E030E040E85FE30E94A20488232D
:102120002CF481E090E09C8B8B8B3FC06D897E8985
:102130008F89988D20E03FEF4FE757E40E944204DB
:1021400018164CF5698D7A8D8B8D9C8D20E030E0D2
:1021500040E251E40E949C02DC01CB01BC01CD01B4
:102160000E94C600DC01CB019C8B8B8B0FC088ECDE
:1021700090E09A8B898B89899A890197F1F79A8BDC
:10218000898B8B899C8901979C8B8B8B8B899C89F4
:10219000009769F714C06D897E898F89988D0E9498
:1021A000C600DC01CB019C8B8B8B8B899C89988B27
:1021B0008F878F8598890197F1F7988B8F878BA1EF
:1021C0009CA1ADA1BEA10196A11DB11D8BA39CA395
:1021D000ADA3BEA38FE296E00E94A13A9C0140E02D
:1021E00050E08F8D98A1A9A1BAA1281739074A07F5
:1021F0005B0709F055C01E8E1D8E41C08BE295E035
:102200002CE235E0B90141E050E00E94883A8D8D22
:102210009E8DFC01E15DF94F808180932C058BE25E
:1022200095E029E630E0B90142E050E00E94AA3A88
:10223000009701F580912A058F5F80932A05809190
:102240002A05282F30E080912305992787FD909556
:1022500002962817390771F410922305109226056B
:1022600010922705109228051092290581E080938D
:10227000F70694C08D8D9E8D01969E8F8D8F8D8DCE
:102280009E8D9C0140E050E08F8D98A1A9A1BAA13C
:10229000281739074A075B0708F4B0CF10922A05C0
:1022A00080E090E0A0E8BFE38B879C87AD87BE8786
:1022B0006B857C858D859E8520E030E04AEF54E477
:1022C0000E949C02DC01CB018F839887A987BA8783
:1022D0006F81788589859A8520E030E040E85FE36A
:1022E0000E94A20488232CF481E090E09E838D83D9
:1022F0003FC06F81788589859A8520E03FEF4FE761
:1023000057E40E94420418164CF56B857C858D8538
:102310009E8520E030E040E251E40E949C02DC0116
:10232000CB01BC01CD010E94C600DC01CB019E8324
:102330008D830FC088EC90E09C838B838B819C8184
:102340000197F1F79C838B838D819E8101979E83FA
:102350008D838D819E81009769F714C06F81788588
:1023600089859A850E94C600DC01CB019E838D83FE
:102370008D819E819A83898389819A810197F1F762
:102380009A8389838BA19CA1ADA1BEA10196A11DB9
:10239000B11D8BA39CA3ADA3BEA356CEA6960FB62C
:1023A000F894DEBF0FBECDBFCF91DF910895DF93CC
:1023B000CF93CDB7DEB784E08093F7060E94161066
:1023C0008091F7068823D1F3CF91DF910895DF93B1
:1023D000CF93CDB7DEB78FE296E060E070E047ECD8
:1023E00050E00E949A3A1092250510922405CF9150
:1023F000DF910895DF93CF93CDB7DEB72D970FB65A
:10240000F894DEBF0FBECDBF9B878A877D876C8720
:102410008CE090E09C838B8305C08B819C8101962E
:102420009C838B832A853B858B819C81F901E80FF6
:10243000F91F80818D3029F08B819C818436910534
:1024400060F38A859B85AC01445F5F4F8B819C81E3
:102450009C012C503040CE010596BA01A9010E9482
:10246000B83ACE0105960E943A3A9D878C878B81B7
:102470009C8102969C838B838A859B850E94A13ACE
:102480009C018B819C81A901481B590BCA019A832D
:1024900089832A853B858B819C81A901480F591F1F
:1024A0008A859B8529813A81BA01A9010E947F3AD8
:1024B00089819A819C01265030408A859B85820FB4
:1024C000931F2CE630E0B90146E050E00E94AA3AA2
:1024D000009799F489819A819C01265030408A8521
:1024E0009B85280F391F8B819C81AC014A5F5F4F10
:1024F000C90160E070E00E949A3A2D960FB6F894F8
:10250000DEBF0FBECDBFCF91DF910895DF93CF9394
:10251000CDB7DEB761970FB6F894DEBF0FBECDBF63
:10252000988B8F870E94E71180E090E0A8E4B3E4E5
:102530008B879C87AD87BE876B857C858D859E85C7
:1025400020E030E04AEF54E40E949C02DC01CB0121
:102550008F839887A987BA876F81788589859A85BF
:1025600020E030E040E85FE30E94A20488232CF4DE
:1025700081E090E09E838D833FC06F81788589855F
:102580009A8520E03FEF4FE757E40E944204181677
:102590004CF56B857C858D859E8520E030E040E2A2
:1025A00051E40E949C02DC01CB01BC01CD010E94E0
:1025B000C600DC01CB019E838D830FC088EC90E0C8
:1025C0009C838B838B819C810197F1F79C838B8308
:1025D0008D819E8101979E838D838D819E81009741
:1025E00069F714C06F81788589859A850E94C60035
:1025F000DC01CB019E838D838D819E819A838983AB
:1026000089819A810197F1F79A8389830E94D71172
:102610008091F706823061F08FE296E02F8538894D
:10262000B9010E94C73A009719F081E0898B01C077
:10263000198A898961960FB6F894DEBF0FBECDBFA7
:10264000CF91DF910895DF93CF9300D000D0CDB725
:10265000DEB79A8389837C836B8389819A810E9408
:10266000910C8DE00E947A0C8B819C810E948612D5
:102670000F900F900F900F90CF91DF910895DF93FF
:10268000CF9300D000D0CDB7DEB79A8389837C8307
:102690006B8383E790E00E94910C89819A810E946C
:1026A000910C81E890E00E94910C8B819C810E94AA
:1026B000910C85E890E00E94910C88E890E00E94DF
:1026C00086120F900F900F900F90CF91DF91089589
:1026D000DF93CF9300D0CDB7DEB719821FC08BE850
:1026E00090E028E830E0B9010E942313882349F4E0
:1026F00080E990E028E830E0B9010E9423138823A4
:1027000051F083E990E027E930E0B9010E943F13DE
:1027100081E08A8307C089818F5F898389818530C1
:10272000F0F21A828A810F900F90CF91DF91089575
:10273000DF93CF93CDB7DEB727970FB6F894DEBF00
:102740000FBECDBF9A8389837C836B835E834D8369
:1027500089E990E00E94910C83EA90E00E94861241
:10276000982F81E08927882311F01F8249C08EEAC3
:1027700090E00E94910C88E890E00E9486128CEB19
:1027800090E00E94910C88E890E00E9486128BED08
:1027900090E00E94910C89819A810E94910C85E8B9
:1027A00090E00E94910C88E890E00E94861280EFF1
:1027B00090E00E94910C8B819C810E94910C85E895
:1027C00090E00E94910C88E890E00E94861286E0DA
:1027D00091E00E94910C8D819E810E94910C85E870
:1027E00090E00E94910C88E890E00E9486128BE1B4
:1027F00091E00E94910C88E890E00E9486128F83FD
:102800008F8127960FB6F894DEBF0FBECDBFCF9154
:10281000DF910895DF93CF93CDB7DEB789E291E0E2
:102820000E94910C88E890E00E948612CF91DF917F
:102830000895DF93CF93CDB7DEB786E391E00E9492
:10284000910C88E890E00E948612CF91DF91089564
:10285000DF93CF9300D0CDB7DEB79A83898383E42B
:1028600091E029813A81B9010E943F130F900F90A6
:10287000CF91DF910895DF93CF93CDB7DEB787E493
:1028800091E00E94910C82E08093230585E591E020
:102890000E948612CF91DF910895DF93CF93CDB739
:1028A000DEB781E691E029E631E0B9010E943F13ED
:1028B000CF91DF910895DF93CF93CDB7DEB78AE74D
:1028C00091E00E94910C88E890E00E948612CF91DE
:1028D000DF910895DF93CF93CDB7DEB76C970FB636
:1028E000F894DEBF0FBECDBF9B8F8A8F8A8D9B8DE4
:1028F0000E94A13A9C018DB79EB708970FB6F89435
:102900009EBF0FBE8DBFEDB7FEB73196CE010196CB
:102910009183808388E891E0938382833583248345
:1029200080E197E2978386830E94FE3A8DB79EB737
:1029300008960FB6F8949EBF0FBE8DBFCE010196CC
:102940000E94910C8BE991E00E948612882349F045
:102950008A8D9B8D28E830E0B9010E9423138C8F6B
:1029600001C01C8E8C8D6C960FB6F894DEBF0FBE26
:10297000CDBFCF91DF910895DF93CF930F92CDB765
:10298000DEB789838981882321F484EA91E00E945B
:10299000910C8981813021F485EB91E00E94910CAA
:1029A00088E890E00E9486120F90CF91DF91089501
:1029B000DF93CF93CDB7DEB76D970FB6F894DEBF38
:1029C0000FBECDBF8A8F7C8F6B8F8A8D282F30E012
:1029D0008DB79EB708970FB6F8949EBF0FBE8DBFF8
:1029E000EDB7FEB73196CE0101969183808386ECD8
:1029F00091E093838283358324838B8D9C8D978391
:102A000086830E94FE3A8DB79EB708960FB6F8945B
:102A10009EBF0FBE8DBF1A8ECE0101960E94910CF3
:102A200082E08093230589ED91E00E94861288233D
:102A300051F08FE296E02B8D3C8DB9010E94FA1186
:102A400091E09D8F01C01D8E8D8D6D960FB6F8940F
:102A5000DEBF0FBECDBFCF91DF910895DF93CF933F
:102A600000D000D000D0CDB7DEB79B838A837D83B2
:102A70006C8383E990E027E930E0B9010E943F13BD
:102A80008A819B810E946A14982F81E0892788237C
:102A900039F481E00E94BC1491E08927882319F061
:102AA00082E08E831CC083EE91E00E9486128983AF
:102AB0008091F706823019F482E08E8310C08981FC
:102AC00091E08927882319F085E08E8308C02C8146
:102AD0003D8180E0B9010E94D81481E08E838E810F
:102AE00026960FB6F894DEBF0FBECDBFCF91DF9113
:102AF0000895DF93CF9300D000D00F92CDB7DEB70B
:102B00009A8389837C836B8383E990E027E930E0B3
:102B1000B9010E943F1383E491E029813A81B90110
:102B20000E943F1380E00E94BC1489EE91E00E9455
:102B300086128091F706823019F482E08D8308C0F6
:102B40002B813C8180E0B9010E94D81481E08D8303
:102B50008D810F900F900F900F900F90CF91DF917C
:102B60000895DF93CF93CDB7DEB70E9419140E946A
:102B70000A14CF91DF9108950F931F93DF93CF93A2
:102B8000CDB7DEB7CD57D0400FB6F894DEBF0FBE3D
:102B9000CDBFFE01E458FF4F8083FE01E358FF4F95
:102BA0006083DE01A558BF4FFE01E458FF4F8081CE
:102BB00082958F708C93DE01A658BF4FFE01E458BA
:102BC000FF4F80818F708C93FE01E358FF4F80810F
:102BD000882341F4ABE3B0E0EBE3F0E080818E7F4B
:102BE0008C9307C0ABE3B0E0EBE3F0E08081816061
:102BF0008C93FE01EB58FF4F80E090E0A0EAB0E438
:102C000080839183A283B3838E010F581F4FFE01EF
:102C1000EB58FF4F60817181828193812BEA3AEA00
:102C20004AE250E40E949C02DC01CB01F80180835F
:102C30009183A283B383FE01EF58FF4F60817181BE
:102C40008281938120E030E040E85FE30E94A204AB
:102C5000882334F4FE01E059FF4F81E08083E0C017
:102C6000FE01EF58FF4F608171818281938120E0E6
:102C700030E04FE753E40E94420418160CF0C0C045
:102C8000FE01EB58FF4F608171818281938120E0CA
:102C900030E04AE754E40E949603DC01CB01FE01D8
:102CA000E459FF4F80839183A283B3838E01085937
:102CB0001F4FFE01E459FF4F608171818281938132
:102CC00020E030E04AEF54E40E949C02DC01CB019A
:102CD000F80180839183A283B383FE01E859FF4FFB
:102CE000608171818281938120E030E040E85FE380
:102CF0000E94A204882344F4FE01EA59FF4F81E0B8
:102D000090E09183808364C0FE01E859FF4F6081A9
:102D100071818281938120E03FEF4FE757E40E9469
:102D2000420418160CF043C0FE01E459FF4F6081C5
:102D300071818281938120E030E040E251E40E9481
:102D40009C02DC01CB018E010A591F4FBC01CD0151
:102D50000E94C600DC01CB01F801918380831FC073
:102D6000FE01EC59FF4F88EC90E091838083FE01D7
:102D7000EC59FF4F808191810197F1F7FE01EC59E9
:102D8000FF4F91838083DE01AA59BF4FFE01EA59AC
:102D9000FF4F80819181019711969C938E93FE0144
:102DA000EA59FF4F808191810097D1F64BC08E0187
:102DB0000A591F4FFE01E859FF4F608171818281DE
:102DC00093810E94C600DC01CB01F80191838083CE
:102DD000DE01AE59BF4FFE01EA59FF4F808191815C
:102DE00011969C938E93FE01EE59FF4F8081918145
:102DF0000197F1F7FE01EE59FF4F9183808322C0C6
:102E00008E0100591F4FFE01EF58FF4F6081718105
:102E1000828193810E94C600DC01CB01F80180838E
:102E2000DE01AF59BF4FFE01E059FF4F80818C9307
:102E3000FE01EF59FF4F80818A95F1F7FE01EF59AE
:102E4000FF4F8083ABE3B0E0EBE3F0E08081846090
:102E50008C93EBE3F0E08081282F2F70FE01E55882
:102E6000FF4F8081882F90E082959295907F9827E0
:102E7000807F9827822BFE01E758FF4F8083ABE3CA
:102E8000B0E0FE01E758FF4F80818C93FE01E35ACA
:102E9000FF4F80E090E0A0EAB0E480839183A283BA
:102EA000B3838E01075A1F4FFE01E35AFF4F608123
:102EB0007181828193812BEA3AEA4AE250E40E94CE
:102EC0009C02DC01CB01F80180839183A283B38350
:102ED000FE01E75AFF4F608171818281938120E07A
:102EE00030E040E85FE30E94A204882334F4FE014E
:102EF000E85AFF4F81E08083E0C0FE01E75AFF4FB0
:102F0000608171818281938120E030E04FE753E45A
:102F10000E94420418160CF0C0C0FE01E35AFF4F95
:102F2000608171818281938120E030E04AE754E43E
:102F30000E949603DC01CB01FE01EC5AFF4F808317
:102F40009183A283B3838E01005B1F4FFE01EC5A75
:102F5000FF4F608171818281938120E030E04AEFF0
:102F600054E40E949C02DC01CB01F8018083918330
:102F7000A283B383FE01E05BFF4F60817181828198
:102F8000938120E030E040E85FE30E94A2048823C0
:102F900044F4FE01E25BFF4F81E090E09183808387
:102FA00064C0FE01E05BFF4F60817181828193818B
:102FB00020E03FEF4FE757E40E94420418160CF060
:102FC00043C0FE01EC5AFF4F608171818281938181
:102FD00020E030E040E251E40E949C02DC01CB01A1
:102FE0008E01025B1F4FBC01CD010E94C600DC01B7
:102FF000CB01F801918380831FC0FE01E45BFF4F8A
:1030000088EC90E091838083FE01E45BFF4F808138
:1030100091810197F1F7FE01E45BFF4F918380837B
:10302000DE01A25BBF4FFE01E25BFF4F8081918119
:10303000019711969C938E93FE01E25BFF4F808176
:1030400091810097D1F64BC08E01025B1F4FFE01AC
:10305000E05BFF4F60817181828193810E94C60095
:10306000DC01CB01F80191838083DE01A65BBF4FB9
:10307000FE01E25BFF4F8081918111969C938E93BC
:10308000FE01E65BFF4F808191810197F1F7FE0120
:10309000E65BFF4F9183808322C08E01085A1F4F49
:1030A000FE01E75AFF4F60817181828193810E9406
:1030B000C600DC01CB01F8018083DE01A75BBF4FB6
:1030C000FE01E85AFF4F80818C93FE01E75BFF4FC2
:1030D00080818A95F1F7FE01E75BFF4F8083ABE3C8
:1030E000B0E0EBE3F0E080818B7F8C93FE01EB5B43
:1030F000FF4F80E090E0A0EAB0E480839183A28358
:10310000B3838E010F5B1F4FFE01EB5BFF4F6081AE
:103110007181828193812BEA3AEA4AE250E40E946B
:103120009C02DC01CB01F80180839183A283B383ED
:10313000FE01EF5BFF4F608171818281938120E00E
:1031400030E040E85FE30E94A204882334F481E089
:10315000FE01E05CFF4F80839DC0FE01EF5BFF4FEF
:10316000608171818281938120E030E04FE753E4F8
:103170000E94420418160CF07EC0FE01EB5BFF4F6C
:10318000608171818281938120E030E04AE754E4DC
:103190000E949603DC01CB018CAF9DAFAEAFBFAFF9
:1031A0006CAD7DAD8EAD9FAD20E030E04AEF54E4D4
:1031B0000E949C02DC01CB0188AF99AFAAAFBBAFE4
:1031C00068AD79AD8AAD9BAD20E030E040E85FE3CB
:1031D0000E94A20488232CF481E090E09FAB8EAB88
:1031E0003FC068AD79AD8AAD9BAD20E03FEF4FE7C2
:1031F00057E40E94420418164CF56CAD7DAD8EADBF
:103200009FAD20E030E040E251E40E949C02DC01EE
:10321000CB01BC01CD010E94C600DC01CB019FABFC
:103220008EAB0FC088EC90E09DAB8CAB8CA99DA9B8
:103230000197F1F79DAB8CAB8EA99FA901979FAB2E
:103240008EAB8EA99FA9009769F72DC068AD79ADA7
:103250008AAD9BAD0E94C600DC01CB019FAB8EAB5B
:103260008EA99FA99BAB8AAB8AA99BA90197F1F76D
:103270009BAB8AAB18C0FE01EF5BFF4F6081718191
:10328000828193810E94C600DC01CB01FE01E05CDB
:10329000FF4F8083FE01E05CFF4F808189AB89A9ED
:1032A0008A95F1F789ABABE3B0E0EBE3F0E0808126
:1032B00084608C93EBE3F0E08081282F2F70FE0177
:1032C000E658FF4F8081882F90E082959295907FFD
:1032D0009827807F9827822BFE01E758FF4F808335
:1032E000ABE3B0E0FE01E758FF4F80818C9380E0B4
:1032F00090E0A0EAB0E48DA79EA7AFA7B8AB6DA5FC
:103300007EA58FA598A92BEA3AEA4AE250E40E94EA
:103310009C02DC01CB0189A79AA7ABA7BCA769A532
:103320007AA58BA59CA520E030E040E85FE30E94F1
:10333000A20488231CF481E088A791C069A57AA51E
:103340008BA59CA520E030E04FE753E40E944204A7
:1033500018160CF07BC06DA57EA58FA598A920E05E
:1033600030E04AE754E40E949603DC01CB018CA3D1
:103370009DA3AEA3BFA36CA17DA18EA19FA120E0C0
:1033800030E04AEF54E40E949C02DC01CB0188A3A8
:1033900099A3AAA3BBA368A179A18AA19BA120E0BC
:1033A00030E040E85FE30E94A20488232CF481E02F
:1033B00090E09F8F8E8F3FC068A179A18AA19BA1C9
:1033C00020E03FEF4FE757E40E94420418164CF507
:1033D0006CA17DA18EA19FA120E030E040E251E4EC
:1033E0000E949C02DC01CB01BC01CD010E94C60001
:1033F000DC01CB019F8F8E8F0FC088EC90E09D8FFA
:103400008C8F8C8D9D8D0197F1F79D8F8C8F8E8D7C
:103410009F8D01979F8F8E8F8E8D9F8D009769F75F
:1034200024C068A179A18AA19BA10E94C600DC01E9
:10343000CB019F8F8E8F8E8D9F8D9B8F8A8F8A8DD4
:103440009B8D0197F1F79B8F8A8F0FC069A57AA595
:103450008BA59CA50E94C600DC01CB0188A788A58E
:10346000898F898D8A95F1F7898FABE3B0E0EBE323
:10347000F0E080818B7F8C9380E090E0A0EAB0E464
:103480008D8B9E8BAF8BB88F6D897E898F89988D40
:103490002BEA3AEA4AE250E40E949C02DC01CB01AA
:1034A000898B9A8BAB8BBC8B69897A898B899C8938
:1034B00020E030E040E85FE30E94A20488231CF48F
:1034C00081E0888B91C069897A898B899C8920E009
:1034D00030E04FE753E40E94420418160CF07BC022
:1034E0006D897E898F89988D20E030E04AE754E429
:1034F0000E949603DC01CB018C879D87AE87BF8736
:103500006C857D858E859F8520E030E04AEF54E410
:103510000E949C02DC01CB0188879987AA87BB8720
:10352000688579858A859B8520E030E040E85FE307
:103530000E94A20488232CF481E090E09F838E8374
:103540003FC0688579858A859B8520E03FEF4FE7FE
:1035500057E40E94420418164CF56C857D858E85D3
:103560009F8520E030E040E251E40E949C02DC01B3
:10357000CB01BC01CD010E94C600DC01CB019F83C1
:103580008E830FC088EC90E09D838C838C819D811D
:103590000197F1F79D838C838E819F8101979F8393
:1035A0008E838E819F81009769F724C06885798515
:1035B0008A859B850E94C600DC01CB019F838E8398
:1035C0008E819F819B838A838A819B810197F1F7FA
:1035D0009B838A830FC069897A898B899C890E9421
:1035E000C600DC01CB01888B8889898389818A9513
:1035F000F1F789830E94081BC358DF4F0FB6F89478
:10360000DEBF0FBECDBFCF91DF911F910F91089507
:103610000F931F93DF93CF93CDB7DEB7CB5AD04034
:103620000FB6F894DEBF0FBECDBFFE01E655FF4FCB
:103630001082AAE3B0E0EAE3F0E080818F708C931F
:10364000ABE3B0E0EBE3F0E0808182608C93ABE32E
:10365000B0E0EBE3F0E080818E7F8C93FE01EB55D0
:10366000FF4F80E090E0A0E0BFE380839183A283DE
:10367000B3838E010F551F4FFE01EB55FF4F608145
:103680007181828193812BEA3AEA4AE250E40E94F6
:103690009C02DC01CB01F80180839183A283B38378
:1036A000FE01EF55FF4F608171818281938120E09F
:1036B00030E040E85FE30E94A204882334F4FE0176
:1036C000E056FF4F81E08083E0C0FE01EF55FF4FE1
:1036D000608171818281938120E030E04FE753E483
:1036E0000E94420418160CF0C0C0FE01EB55FF4FBB
:1036F000608171818281938120E030E04AE754E467
:103700000E949603DC01CB01FE01E456FF4F80834B
:103710009183A283B3838E0108561F4FFE01E456A6
:10372000FF4F608171818281938120E030E04AEF18
:1037300054E40E949C02DC01CB01F8018083918358
:10374000A283B383FE01E856FF4F608171818281BD
:10375000938120E030E040E85FE30E94A2048823E8
:1037600044F4FE01EA56FF4F81E090E091838083AC
:1037700064C0FE01E856FF4F6081718182819381B0
:1037800020E03FEF4FE757E40E94420418160CF088
:1037900043C0FE01E456FF4F6081718182819381B5
:1037A00020E030E040E251E40E949C02DC01CB01C9
:1037B0008E010A561F4FBC01CD010E94C600DC01DC
:1037C000CB01F801918380831FC0FE01EC56FF4FAF
:1037D00088EC90E091838083FE01EC56FF4F80815E
:1037E00091810197F1F7FE01EC56FF4F91838083A1
:1037F000DE01AA56BF4FFE01EA56FF4F808191813C
:10380000019711969C938E93FE01EA56FF4F80819B
:1038100091810097D1F64BC08E010A561F4FFE01D1
:10382000E856FF4F60817181828193810E94C600BA
:10383000DC01CB01F80191838083DE01AE56BF4FDE
:10384000FE01EA56FF4F8081918111969C938E93E1
:10385000FE01EE56FF4F808191810197F1F7FE0145
:10386000EE56FF4F9183808322C08E0100561F4F7A
:10387000FE01EF55FF4F60817181828193810E942B
:10388000C600DC01CB01F8018083DE01AF56BF4FDB
:10389000FE01E056FF4F80818C93FE01EF56FF4FF3
:1038A00080818A95F1F7FE01EF56FF4F8083ABE3ED
:1038B000B0E0EBE3F0E0808184608C93FE01E3579D
:1038C000FF4F80E090E0A0E0BFE380839183A2837C
:1038D000B3838E0107571F4FFE01E357FF4F6081EF
:1038E0007181828193812BEA3AEA4AE250E40E9494
:1038F0009C02DC01CB01F80180839183A283B38316
:10390000FE01E757FF4F608171818281938120E042
:1039100030E040E85FE30E94A204882334F4FE0113
:10392000E857FF4F81E08083E0C0FE01E757FF4F7B
:10393000608171818281938120E030E04FE753E420
:103940000E94420418160CF0C0C0FE01E357FF4F5E
:10395000608171818281938120E030E04AE754E404
:103960000E949603DC01CB01FE01EC57FF4F8083E0
:103970009183A283B3838E0100581F4FFE01EC5741
:10398000FF4F608171818281938120E030E04AEFB6
:1039900054E40E949C02DC01CB01F80180839183F6
:1039A000A283B383FE01E058FF4F60817181828161
:1039B000938120E030E040E85FE30E94A204882386
:1039C00044F4FE01E258FF4F81E090E09183808350
:1039D00064C0FE01E058FF4F608171818281938154
:1039E00020E03FEF4FE757E40E94420418160CF026
:1039F00043C0FE01EC57FF4F60817181828193814A
:103A000020E030E040E251E40E949C02DC01CB0166
:103A10008E0102581F4FBC01CD010E94C600DC017F
:103A2000CB01F801918380831FC0FE01E458FF4F52
:103A300088EC90E091838083FE01E458FF4F808101
:103A400091810197F1F7FE01E458FF4F9183808344
:103A5000DE01A258BF4FFE01E258FF4F80819181E5
:103A6000019711969C938E93FE01E258FF4F80813F
:103A700091810097D1F64BC08E0102581F4FFE0175
:103A8000E058FF4F60817181828193810E94C6005E
:103A9000DC01CB01F80191838083DE01A658BF4F82
:103AA000FE01E258FF4F8081918111969C938E9385
:103AB000FE01E658FF4F808191810197F1F7FE01E9
:103AC000E658FF4F9183808322C08E0108571F4F15
:103AD000FE01E757FF4F60817181828193810E94CF
:103AE000C600DC01CB01F8018083DE01A758BF4F7F
:103AF000FE01E857FF4F80818C93FE01E758FF4F8E
:103B000080818A95F1F7FE01E758FF4F8083E9E352
:103B1000F0E08081FE01E655FF4F82958F70808333
:103B2000DE01A655BF4FFE01E655FF4F808182950D
:103B3000807F8C93FE01EB58FF4F80E090E0A0E087
:103B4000BFE380839183A283B3838E010F581F4FFD
:103B5000FE01EB58FF4F60817181828193812BEAD6
:103B60003AEA4AE250E40E949C02DC01CB01F801EF
:103B700080839183A283B383FE01EF58FF4F60815E
:103B800071818281938120E030E040E85FE30E9410
:103B9000A204882334F4FE01E059FF4F81E08083C2
:103BA000E0C0FE01EF58FF4F6081718182819381F7
:103BB00020E030E04FE753E40E94420418160CF076
:103BC000C0C0FE01EB58FF4F6081718182819381FB
:103BD00020E030E04AE754E40E949603DC01CB0188
:103BE000FE01E459FF4F80839183A283B3838E014A
:103BF00008591F4FFE01E459FF4F60817181828196
:103C0000938120E030E04AEF54E40E949C02DC0102
:103C1000CB01F80180839183A283B383FE01E8592D
:103C2000FF4F608171818281938120E030E040E824
:103C30005FE30E94A204882344F4FE01EA59FF4F87
:103C400081E090E09183808364C0FE01E859FF4FDA
:103C5000608171818281938120E03FEF4FE757E4DB
:103C60000E94420418160CF043C0FE01E459FF4FB5
:103C7000608171818281938120E030E040E251E4F3
:103C80000E949C02DC01CB018E010A591F4FBC012E
:103C9000CD010E94C600DC01CB01F8019183808335
:103CA0001FC0FE01EC59FF4F88EC90E091838083A8
:103CB000FE01EC59FF4F808191810197F1F7FE01E0
:103CC000EC59FF4F91838083DE01AA59BF4FFE015B
:103CD000EA59FF4F80819181019711969C938E93B1
:103CE000FE01EA59FF4F808191810097D1F64BC0C8
:103CF0008E010A591F4FFE01E859FF4F6081718103
:103D0000828193810E94C600DC01CB01F80191837E
:103D10008083DE01AE59BF4FFE01EA59FF4F80811B
:103D2000918111969C938E93FE01EE59FF4F8081F5
:103D300091810197F1F7FE01EE59FF4F9183808346
:103D400022C08E0100591F4FFE01EF58FF4F6081C6
:103D50007181828193810E94C600DC01CB01F80150
:103D60008083DE01AF59BF4FFE01E059FF4F8081D4
:103D70008C93FE01EF59FF4F80818A95F1F7FE0188
:103D8000EF59FF4F8083ABE3B0E0EBE3F0E08081DD
:103D90008B7F8C93FE01E35AFF4F80E090E0A0E818
:103DA000BFE380839183A283B3838E01075A1F4FA1
:103DB000FE01E35AFF4F60817181828193812BEA7A
:103DC0003AEA4AE250E40E949C02DC01CB01F8018D
:103DD00080839183A283B383FE01E75AFF4F608102
:103DE00071818281938120E030E040E85FE30E94AE
:103DF000A204882334F4FE01E85AFF4F81E0808357
:103E0000E0C0FE01E75AFF4F60817181828193819A
:103E100020E030E04FE753E40E94420418160CF013
:103E2000C0C0FE01E35AFF4F60817181828193819E
:103E300020E030E04AE754E40E949603DC01CB0125
:103E4000FE01EC5AFF4F80839183A283B3838E01DE
:103E5000005B1F4FFE01EC5AFF4F60817181828130
:103E6000938120E030E04AEF54E40E949C02DC01A0
:103E7000CB01F80180839183A283B383FE01E05BD1
:103E8000FF4F608171818281938120E030E040E8C2
:103E90005FE30E94A204882344F4FE01E25BFF4F2B
:103EA00081E090E09183808364C0FE01E05BFF4F7E
:103EB000608171818281938120E03FEF4FE757E479
:103EC0000E94420418160CF043C0FE01EC5AFF4F4A
:103ED000608171818281938120E030E040E251E491
:103EE0000E949C02DC01CB018E01025B1F4FBC01D2
:103EF000CD010E94C600DC01CB01F80191838083D3
:103F00001FC0FE01E45BFF4F88EC90E0918380834B
:103F1000FE01E45BFF4F808191810197F1F7FE0183
:103F2000E45BFF4F91838083DE01A25BBF4FFE0104
:103F3000E25BFF4F80819181019711969C938E9354
:103F4000FE01E25BFF4F808191810097D1F64BC06B
:103F50008E01025B1F4FFE01E05BFF4F60817181AC
:103F6000828193810E94C600DC01CB01F80191831C
:103F70008083DE01A65BBF4FFE01E25BFF4F8081C5
:103F8000918111969C938E93FE01E65BFF4F808199
:103F900091810197F1F7FE01E65BFF4F91838083EA
:103FA00022C08E01085A1F4FFE01E75AFF4F608161
:103FB0007181828193810E94C600DC01CB01F801EE
:103FC0008083DE01A75BBF4FFE01E85AFF4F80816F
:103FD0008C93FE01E75BFF4F80818A95F1F7FE012C
:103FE000E75BFF4F8083ABE3B0E0EBE3F0E0808181
:103FF00084608C93FE01EB5BFF4F80E090E0A0E0DB
:10400000BFE380839183A283B3838E010F5B1F4F35
:10401000FE01EB5BFF4F60817181828193812BEA0E
:104020003AEA4AE250E40E949C02DC01CB01F8012A
:1040300080839183A283B383FE01EF5BFF4F608196
:1040400071818281938120E030E040E85FE30E944B
:10405000A204882334F481E0FE01E05CFF4F8083FA
:104060009DC0FE01EF5BFF4F608171818281938172
:1040700020E030E04FE753E40E94420418160CF0B1
:104080007EC0FE01EB5BFF4F608171818281938175
:1040900020E030E04AE754E40E949603DC01CB01C3
:1040A0008CAF9DAFAEAFBFAF6CAD7DAD8EAD9FADF4
:1040B00020E030E04AEF54E40E949C02DC01CB0196
:1040C00088AF99AFAAAFBBAF68AD79AD8AAD9BADF4
:1040D00020E030E040E85FE30E94A20488232CF453
:1040E00081E090E09FAB8EAB3FC068AD79AD8AAD0B
:1040F0009BAD20E03FEF4FE757E40E9442041816C3
:104100004CF56CAD7DAD8EAD9FAD20E030E040E272
:1041100051E40E949C02DC01CB01BC01CD010E9454
:10412000C600DC01CB019FAB8EAB0FC088EC90E0EA
:104130009DAB8CAB8CA99DA90197F1F79DAB8CAB86
:104140008EA99FA901979FAB8EAB8EA99FA90097BF
:1041500069F72DC068AD79AD8AAD9BAD0E94C600F0
:10416000DC01CB019FAB8EAB8EA99FA99BAB8AAB29
:104170008AA99BA90197F1F79BAB8AAB18C0FE01F6
:10418000EF5BFF4F60817181828193810E94C60045
:10419000DC01CB01FE01E05CFF4F8083FE01E05CAF
:1041A000FF4F808189AB89A98A95F1F789ABE9E353
:1041B000F0E08081FE01E755FF4F82958F7080838C
:1041C000DE01A755BF4FFE01E755FF4F80818F707D
:1041D0008C939E0126553F4FFE01E655FF4FDE01B1
:1041E000A755BF4F90818C91892BF9018083DE0107
:1041F000A555BF4FFE01E655FF4F808180788C9317
:1042000080E090E0A0E0BFE38DA79EA7AFA7B8AB8A
:104210006DA57EA58FA598A92BEA3AEA4AE250E45B
:104220000E949C02DC01CB0189A79AA7ABA7BCA77F
:1042300069A57AA58BA59CA520E030E040E85FE366
:104240000E94A20488231CF481E088A791C069A57C
:104250007AA58BA59CA520E030E04FE753E40E94AF
:10426000420418160CF07BC06DA57EA58FA598A9F9
:1042700020E030E04AE754E40E949603DC01CB01E1
:104280008CA39DA3AEA3BFA36CA17DA18EA19FA172
:1042900020E030E04AEF54E40E949C02DC01CB01B4
:1042A00088A399A3AAA3BBA368A179A18AA19BA172
:1042B00020E030E040E85FE30E94A20488232CF471
:1042C00081E090E09F8F8E8F3FC068A179A18AA185
:1042D0009BA120E03FEF4FE757E40E9442041816ED
:1042E0004CF56CA17DA18EA19FA120E030E040E2C1
:1042F00051E40E949C02DC01CB01BC01CD010E9473
:10430000C600DC01CB019F8F8E8F0FC088EC90E040
:104310009D8F8C8F8C8D9D8D0197F1F79D8F8C8F4C
:104320008E8D9F8D01979F8F8E8F8E8D9F8D009785
:1043300069F724C068A179A18AA19BA10E94C60047
:10434000DC01CB019F8F8E8F8E8D9F8D9B8F8A8FEF
:104350008A8D9B8D0197F1F79B8F8A8F0FC069A57E
:104360007AA58BA59CA50E94C600DC01CB0188A77D
:1043700088A5898F898D8A95F1F7898FABE3B0E0A5
:10438000EBE3F0E080818B7F8C9380E090E0A0E80D
:10439000BFE38D8B9E8BAF8BB88F6D897E898F89A4
:1043A000988D2BEA3AEA4AE250E40E949C02DC0132
:1043B000CB01898B9A8BAB8BBC8B69897A898B8972
:1043C0009C8920E030E040E85FE30E94A20488235B
:1043D0001CF481E0888B91C069897A898B899C89DA
:1043E00020E030E04FE753E40E94420418160CF03E
:1043F0007BC06D897E898F89988D20E030E04AE707
:1044000054E40E949603DC01CB018C879D87AE8724
:10441000BF876C857D858E859F8520E030E04AEFE3
:1044200054E40E949C02DC01CB0188879987AA870B
:10443000BB87688579858A859B8520E030E040E8E8
:104440005FE30E94A20488232CF481E090E09F8324
:104450008E833FC0688579858A859B8520E03FEF04
:104460004FE757E40E94420418164CF56C857D8591
:104470008E859F8520E030E040E251E40E949C025E
:10448000DC01CB01BC01CD010E94C600DC01CB01E7
:104490009F838E830FC088EC90E09D838C838C81FA
:1044A0009D810197F1F79D838C838E819F81019778
:1044B0009F838E838E819F81009769F724C06885D2
:1044C00079858A859B850E94C600DC01CB019F838C
:1044D0008E838E819F819B838A838A819B810197B2
:1044E000F1F79B838A830FC069897A898B899C89BC
:1044F0000E94C600DC01CB01888B88898983898171
:104500008A95F1F78983FE01E555FF4F8081882365
:1045100009F0CDC9ABE3B0E0EBE3F0E080818D7F43
:104520008C93AAE3B0E0EAE3F0E08081806F8C93A3
:10453000C555DF4F0FB6F894DEBF0FBECDBFCF918C
:10454000DF911F910F9108950F931F93DF93CF93E6
:10455000CDB7DEB7C755D0400FB6F894DEBF0FBE5B
:10456000CDBFFE01E95AFF4F8083FE01ED5AFF4F98
:1045700080E090E0A0EFB1E480839183A283B383D5
:104580008E01015B1F4FFE01ED5AFF4F608171816B
:104590008281938120E030E04AEF54E40E949C0243
:1045A000DC01CB01F80180839183A283B383FE01F8
:1045B000E15BFF4F608171818281938120E030E077
:1045C00040E85FE30E94A204882344F4FE01E35B19
:1045D000FF4F81E090E09183808364C0FE01E15B46
:1045E000FF4F608171818281938120E03FEF4FE72F
:1045F00057E40E94420418160CF043C0FE01ED5A25
:10460000FF4F608171818281938120E030E040E240
:1046100051E40E949C02DC01CB018E01035B1F4F21
:10462000BC01CD010E94C600DC01CB01F8019183E1
:1046300080831FC0FE01E55BFF4F88EC90E0918313
:104640008083FE01E55BFF4F808191810197F1F747
:10465000FE01E55BFF4F91838083DE01A35BBF4FCB
:10466000FE01E35BFF4F80819181019711969C933E
:104670008E93FE01E35BFF4F808191810097D1F61D
:1046800027C08E01035B1F4FFE01E15BFF4F60817E
:104690007181828193810E94C600DC01CB01F80107
:1046A00091838083DE01A75BBF4FFE01E35BFF4F79
:1046B000808191818D939C93FE01E75BFF4F808108
:1046C00091810197F1F7FE01E75BFF4F91838083B2
:1046D000AAE3B0E0EAE3F0E08081806F8C93AAE384
:1046E000B0E0EAE3F0E0808184608C93AAE3B0E07C
:1046F000EAE3F0E0808181608C93AAE3B0E0EAE332
:10470000F0E0808182608C93ABE3B0E0EBE3F0E01B
:1047100080818F708C93ABE3B0E0EBE3F0E08081BD
:104720008B7F8C93ABE3B0E0EBE3F0E080818D7F97
:104730008C93ABE3B0E0EBE3F0E080818E7F8C9371
:10474000FE01EB5BFF4F8AE999E9A9E9BEE38083AB
:104750009183A283B3838E010F5B1F4FFE01EB5B3E
:10476000FF4F60817181828193812BEA3AEA4AE2AC
:1047700050E40E949C02DC01CB01F801808391830C
:10478000A283B383FE01EF5BFF4F60817181828161
:10479000938120E030E040E85FE30E94A204882398
:1047A00034F481E0FE01E05CFF4F80839DC0FE0198
:1047B000EF5BFF4F608171818281938120E030E067
:1047C0004FE753E40E94420418160CF07EC0FE012D
:1047D000EB5BFF4F608171818281938120E030E04B
:1047E0004AE754E40E949603DC01CB018CAF9DAFF5
:1047F000AEAFBFAF6CAD7DAD8EAD9FAD20E030E014
:104800004AEF54E40E949C02DC01CB0188AF99AFCF
:10481000AAAFBBAF68AD79AD8AAD9BAD20E030E00B
:1048200040E85FE30E94A20488232CF481E090E03A
:104830009FAB8EAB3FC068AD79AD8AAD9BAD20E03C
:104840003FEF4FE757E40E94420418164CF56CAD59
:104850007DAD8EAD9FAD20E030E040E251E40E949E
:104860009C02DC01CB01BC01CD010E94C600DC0131
:10487000CB019FAB8EAB0FC088EC90E09DAB8CABB7
:104880008CA99DA90197F1F79DAB8CAB8EA99FA92F
:1048900001979FAB8EAB8EA99FA9009769F72DC09A
:1048A00068AD79AD8AAD9BAD0E94C600DC01CB013D
:1048B0009FAB8EAB8EA99FA99BAB8AAB8AA99BA904
:1048C0000197F1F79BAB8AAB18C0FE01EF5BFF4F7E
:1048D00060817181828193810E94C600DC01CB01DD
:1048E000FE01E05CFF4F8083FE01E05CFF4F8081B2
:1048F00089AB89A98A95F1F789ABABE3B0E0EBE32B
:10490000F0E0808184608C93ABE3B0E0EBE3F0E017
:10491000808180628C9380E090E0A0E8BFE38DA767
:104920009EA7AFA7B8AB6DA57EA58FA598A92BEACA
:104930003AEA4AE250E40E949C02DC01CB0189A7DA
:104940009AA7ABA7BCA769A57AA58BA59CA520E0D3
:1049500030E040E85FE30E94A20488231CF481E079
:1049600088A791C069A57AA58BA59CA520E030E019
:104970004FE753E40E94420418160CF07BC06DA56B
:104980007EA58FA598A920E030E04AE754E40E9474
:104990009603DC01CB018CA39DA3AEA3BFA36CA1A6
:1049A0007DA18EA19FA120E030E04AEF54E40E9457
:1049B0009C02DC01CB0188A399A3AAA3BBA368A195
:1049C00079A18AA19BA120E030E040E85FE30E944A
:1049D000A20488232CF481E090E09F8F8E8F3FC04B
:1049E00068A179A18AA19BA120E03FEF4FE757E49E
:1049F0000E94420418164CF56CA17DA18EA19FA1C6
:104A000020E030E040E251E40E949C02DC01CB0156
:104A1000BC01CD010E94C600DC01CB019F8F8E8FAF
:104A20000FC088EC90E09D8F8C8F8C8D9D8D0197B1
:104A3000F1F79D8F8C8F8E8D9F8D01979F8F8E8F1D
:104A40008E8D9F8D009769F724C068A179A18AA1F6
:104A50009BA10E94C600DC01CB019F8F8E8F8E8DA3
:104A60009F8D9B8F8A8F8A8D9B8D0197F1F79B8FEE
:104A70008A8F0FC069A57AA58BA59CA50E94C60048
:104A8000DC01CB0188A788A5898F898D8A95F1F7EC
:104A9000898FABE3B0E0EBE3F0E080818B7F8C9318
:104AA00080E090E0A0E8BFE38D8B9E8BAF8BB88F4A
:104AB0006D897E898F89988D2BEA3AEA4AE250E423
:104AC0000E949C02DC01CB01898B9A8BAB8BBC8B47
:104AD00069897A898B899C8920E030E040E85FE32E
:104AE0000E94A20488231CF481E0888B91C069890C
:104AF0007A898B899C8920E030E04FE753E40E945B
:104B0000420418160CF07BC06D897E898F89988DC0
:104B100020E030E04AE754E40E949603DC01CB0138
:104B20008C879D87AE87BF876C857D858E859F85A9
:104B300020E030E04AEF54E40E949C02DC01CB010B
:104B400088879987AA87BB87688579858A859B85A9
:104B500020E030E040E85FE30E94A20488232CF4C8
:104B600081E090E09F838E833FC0688579858A8548
:104B70009B8520E03FEF4FE757E40E944204181660
:104B80004CF56C857D858E859F8520E030E040E288
:104B900051E40E949C02DC01CB01BC01CD010E94CA
:104BA000C600DC01CB019F838E830FC088EC90E0B0
:104BB0009D838C838C819D810197F1F79D838C83EC
:104BC0008E819F8101979F838E838E819F81009725
:104BD00069F724C0688579858A859B850E94C6000F
:104BE000DC01CB019F838E838E819F819B838A838F
:104BF0008A819B810197F1F79B838A830FC0698922
:104C00007A898B899C890E94C600DC01CB01888B44
:104C10008889898389818A95F1F789830E94081B95
:104C2000FE01E95AFF4F80818C6060E00E94BC1554
:104C300088E260E00E94BC1580E060E00E94FA26F5
:104C4000C95ADF4F0FB6F894DEBF0FBECDBFCF916C
:104C5000DF911F910F910895DF93CF9300D00F92B2
:104C6000CDB7DEB79B838A8330C0EA81FB81808128
:104C7000853201F58A819B8101969B838A83EA8133
:104C8000FB818081805389838981882344F08981D5
:104C900088302CF4898161E00E94BC1511C085E246
:104CA00061E00E94BC15EA81FB81808161E00E9485
:104CB000BC1506C0EA81FB81808161E00E94BC15C1
:104CC0008A819B8101969B838A83EA81FB81808113
:104CD000882359F60F900F900F90CF91DF91089590
:104CE000DF93CF93CDB7DEB72D970FB6F894DEBF25
:104CF0000FBECDBF9B878A877D876C8785E0FE01CD
:104D00003596DF01282F1D922A95E9F784E090E07F
:104D10009C838B831A8219821EC0EB81FC818A8559
:104D20009B852AE030E0B9010E949939282FCE01F5
:104D30000596E80FF91F20838A859B852AE030E0DD
:104D4000B9010E949939CB019B878A878B819C810D
:104D500001979C838B838A859B850097F1F68C85D0
:104D60009D85AFEF8F3F9A0789F405C089819A81AD
:104D700001969A83898329813A81CE010596FC01A7
:104D8000E20FF31F8081882389F308C085E090E05B
:104D90002C853D85821B930B9A8389838A859B850D
:104DA000992324F48DE261E00E94BC1589819A81E7
:104DB0009C838B8311C02B813C81CE010596FC0125
:104DC000E20FF31F8081805D61E00E94BC158B8142
:104DD0009C8101969C838B838B819C81853091057E
:104DE00054F32D960FB6F894DEBF0FBECDBFCF9112
:104DF000DF910895DF93CF9300D000D0CDB7DEB719
:104E000089836A8389818431C0F48A81282F30E0C4
:104E10003C832B838B819C81009741F02B813C81CB
:104E20002130310519F48981806489838981806802
:104E30008983898160E00E94BC150F900F900F90CC
:104E40000F90CF91DF910895DF93CF9300D000D0E2
:104E5000CDB7DEB78A836B834C838A816B810E94D6
:104E6000FA2680E389838C8182958F708A3030F4B2
:104E70008C8182958F70805D898305C08C8182953D
:104E80008F70895C8983898161E00E94BC150E94D2
:104E9000081B8C81882F90E08F7090708A3091056C
:104EA0002CF48C818F70805D898304C08C818F701D
:104EB000895C8983898161E00E94BC150E94081B7E
:104EC0000F900F900F900F90CF91DF910895DF9387
:104ED000CF9300D0CDB7DEB79A83898389819A8139
:104EE00081309105E1F460E07BE480E090E00E9495
:104EF000F80B83E090E066E070E040E050E00E9454
:104F0000ED0883E090E067E070E040E050E00E9450
:104F1000ED0881E090E090931E0580931D05898146
:104F20009A8182309105E1F460E875E280E090E0DA
:104F30000E94F80B83E090E066E070E041E050E012
:104F40000E94ED0883E090E067E070E040E050E010
:104F50000E94ED0882E090E090931E0580931D056D
:104F600089819A8183309105E1F460E072EC81E0FF
:104F700090E00E94F80B83E090E066E070E040E093
:104F800050E00E94ED0883E090E067E070E041E0CF
:104F900050E00E94ED0883E090E090931E0580931E
:104FA0001D050F900F90CF91DF9108950F931F93E0
:104FB000DF93CF93CDB7DEB7CB52D1400FB6F89485
:104FC000DEBF0FBECDBFFE01EE57FF4F1082118234
:104FD00012821382109200061092FF0581E090E089
:104FE00060E070E041E050E00E94FB0781E090E06B
:104FF00061E070E041E050E00E94FB0781E090E05A
:1050000062E070E041E050E00E94FB0781E090E048
:1050100062E070E041E050E00E94FB0783E090E036
:1050200066E070E041E050E00E94FB0783E090E022
:1050300067E070E041E050E00E94FB0782E060E042
:105040000E94FA2688EF91E00E942C26FE01E55886
:10505000FF4F80E090E0AFEAB3E480839183A283C6
:10506000B3838E0109581F4FFE01E558FF4F608141
:1050700071818281938120E030E04AEF54E40E9404
:105080009C02DC01CB01F80180839183A283B3836E
:10509000FE01E958FF4F608171818281938120E098
:1050A00030E040E85FE30E94A204882344F4FE015C
:1050B000EB58FF4F81E090E09183808364C0FE0154
:1050C000E958FF4F608171818281938120E03FEF39
:1050D0004FE757E40E94420418160CF043C0FE014B
:1050E000E558FF4F608171818281938120E030E03B
:1050F00040E251E40E949C02DC01CB018E010B587E
:105100001F4FBC01CD010E94C600DC01CB01F8019C
:10511000918380831FC0FE01ED58FF4F88EC90E023
:1051200091838083FE01ED58FF4F8081918101972B
:10513000F1F7FE01ED58FF4F91838083DE01AB58FC
:10514000BF4FFE01EB58FF4F80819181019711966F
:105150009C938E93FE01EB58FF4F808191810097C5
:10516000D1F627C08E010B581F4FFE01E958FF4FA3
:1051700060817181828193810E94C600DC01CB0134
:10518000F80191838083DE01AF58BF4FFE01EB58D9
:10519000FF4F808191818D939C93FE01EF58FF4FCB
:1051A000808191810197F1F7FE01EF58FF4F9183C4
:1051B000808381E060E00E94BC1581E00E94A4220F
:1051C00082E060E00E94FA268AE092E00E942C26AB
:1051D00085E061E00E94FA2686E192E00E942C269A
:1051E0000E948332FE01E359FF4F80E090E0AAE77E
:1051F000B4E480839183A283B3838E0107591F4F48
:10520000FE01E359FF4F608171818281938120E02B
:1052100030E04AEF54E40E949C02DC01CB01F8012B
:1052200080839183A283B383FE01E759FF4F60819E
:1052300071818281938120E030E040E85FE30E9449
:10524000A204882344F4FE01E959FF4F81E090E075
:105250009183808364C0FE01E759FF4F60817181B3
:105260008281938120E03FEF4FE757E40E944204A0
:1052700018160CF043C0FE01E359FF4F60817181A5
:105280008281938120E030E040E251E40E949C0260
:10529000DC01CB018E0109591F4FBC01CD010E94D9
:1052A000C600DC01CB01F801918380831FC0FE01A1
:1052B000EB59FF4F88EC90E091838083FE01EB591E
:1052C000FF4F808191810197F1F7FE01EB59FF4F6C
:1052D00091838083DE01A959BF4FFE01E959FF4F39
:1052E00080819181019711969C938E93FE01E959DB
:1052F000FF4F808191810097D1F627C08E01095917
:105300001F4FFE01E759FF4F6081718182819381B8
:105310000E94C600DC01CB01F80191838083DE018D
:10532000AD59BF4FFE01E959FF4F808191818D93A7
:105330009C93FE01ED59FF4F808191810197F1F718
:10534000FE01ED59FF4F9183808381E060E00E9470
:10535000BC150E94FB2F87E30E945930FE01E058E4
:10536000FF4F8083FE01E058FF4F8081823989F42E
:1053700082E060E00E94FA268CE192E00E942C26F6
:1053800084E061E00E94FA268BE292E00E942C26E3
:1053900025C0FE01E058FF4F8081813931F0FE01C8
:1053A000E058FF4F8081803989F482E060E00E94FC
:1053B000FA2684E392E00E942C2684E061E00E94B9
:1053C000FA268BE292E00E942C2608C080E060E082
:1053D0000E94FA2683E492E00E942C2682E00E943A
:1053E0005930FE01E058FF4F8083FE01E058FF4F27
:1053F0008081982F906282E0692F0E94343083E090
:105400000E945930FE01E058FF4F8083FE01E058B2
:10541000FF4F8081982F906883E0692F0E9434307D
:10542000FE01E15AFF4F80E090E8ABEBB4E48083EB
:105430009183A283B3838E01055A1F4FFE01E15A67
:10544000FF4F608171818281938120E030E04AEFDB
:1054500054E40E949C02DC01CB01F801808391831B
:10546000A283B383FE01E55AFF4F6081718182817F
:10547000938120E030E040E85FE30E94A2048823AB
:1054800044F4FE01E75AFF4F81E090E0918380836E
:1054900064C0FE01E55AFF4F608171818281938172
:1054A00020E03FEF4FE757E40E94420418160CF04B
:1054B00043C0FE01E15AFF4F608171818281938177
:1054C00020E030E040E251E40E949C02DC01CB018C
:1054D0008E01075A1F4FBC01CD010E94C600DC019E
:1054E000CB01F801918380831FC0FE01E95AFF4F71
:1054F00088EC90E091838083FE01E95AFF4F808120
:1055000091810197F1F7FE01E95AFF4F9183808362
:10551000DE01A75ABF4FFE01E75AFF4F80819181FC
:10552000019711969C938E93FE01E75AFF4F80815D
:1055300091810097D1F627C08E01075A1F4FFE01B7
:10554000E55AFF4F60817181828193810E94C6007C
:10555000DC01CB01F80191838083DE01AB5ABF4FA0
:10556000FE01E75AFF4F808191818D939C93FE014C
:10557000EB5AFF4F808191810197F1F7FE01EB5AC1
:10558000FF4F9183808381E060E00E94BC1582E040
:1055900060E00E94FA2683E592E00E942C26FE013C
:1055A000EF5AFF4F80E090E0A6E9B3E48083918357
:1055B000A283B3838E01035B1F4FFE01EF5AFF4F9F
:1055C000608171818281938120E030E04AEF54E470
:1055D0000E949C02DC01CB01F80180839183A283AD
:1055E000B383FE01E35BFF4F608171818281938110
:1055F00020E030E040E85FE30E94A204882344F406
:10560000FE01E55BFF4F81E090E09183808364C001
:10561000FE01E35BFF4F608171818281938120E015
:105620003FEF4FE757E40E94420418160CF043C0C6
:10563000FE01EF5AFF4F608171818281938120E0EA
:1056400030E040E251E40E949C02DC01CB018E017B
:10565000055B1F4FBC01CD010E94C600DC01CB01E0
:10566000F801918380831FC0FE01E75BFF4F88EC48
:1056700090E091838083FE01E75BFF4F8081918101
:105680000197F1F7FE01E75BFF4F91838083DE0115
:10569000A55BBF4FFE01E55BFF4F808191810197C4
:1056A00011969C938E93FE01E55BFF4F8081918163
:1056B0000097D1F627C08E01055B1F4FFE01E35B0B
:1056C000FF4F60817181828193810E94C600DC015D
:1056D000CB01F80191838083DE01A95BBF4FFE01FE
:1056E000E55BFF4F808191818D939C93FE01E95B87
:1056F000FF4F808191810197F1F7FE01E95BFF4F38
:10570000918380830E94BC0C81E060E00E94BC1504
:1057100081E090E00E94672782E060E00E94FA2624
:1057200087E692E00E942C2660E07BE480E090E037
:105730000E94F80B78940E94681391E089278823CF
:10574000D1F788E792E021E832E042E852E0B9017F
:105750000E949813982F81E08927882391F70E944F
:10576000B115FE01ED5BFF4F80E090E0A6E9B3E4E8
:1057700080839183A283B3838E01015C1F4FFE015E
:10578000ED5BFF4F608171818281938120E030E089
:105790004AEF54E40E949C02DC01CB01F8018083B3
:1057A0009183A283B383FE01FF9660817181828120
:1057B000938120E030E040E85FE30E94A204882368
:1057C0002CF481E090E09EAF8DAF46C0FE01FF96C5
:1057D000608171818281938120E03FEF4FE757E440
:1057E0000E944204181664F5FE01ED5BFF4F6081D4
:1057F00071818281938120E030E040E251E40E9497
:105800009C02DC01CB01BC01CD010E94C600DC0181
:10581000CB019EAF8DAF0FC088EC90E09CAF8BAFFB
:105820008BAD9CAD0197F1F79CAF8BAF8DAD9EAD6D
:1058300001979EAF8DAF8DAD9EAD009769F716C0F5
:10584000FE01FF9660817181828193810E94C60072
:10585000DC01CB019EAF8DAF8DAD9EAD9AAF89AF10
:1058600089AD9AAD0197F1F79AAF89AF81E060E019
:105870000E94BC1582E090E00E94672782E060E011
:105880000E94FA268BE892E00E942C2685E395E0A0
:1058900060E070E046E950E00E949A3A8BEC95E0B7
:1058A00060E070E044E150E00E949A3A80E090E8C5
:1058B000ABE3B5E48DAB9EABAFABB8AF6DA97EA942
:1058C0008FA998AD20E030E04AEF54E40E949C029A
:1058D000DC01CB0189AB9AABABABBCAB69A97AA9B4
:1058E0008BA99CA920E030E040E85FE30E94A2047D
:1058F00088232CF481E090E098AB8FA73FC069A982
:105900007AA98BA99CA920E03FEF4FE757E40E94BA
:10591000420418164CF56DA97EA98FA998AD20E018
:1059200030E040E251E40E949C02DC01CB01BC016A
:10593000CD010E94C600DC01CB0198AB8FA70FC040
:1059400088EC90E09EA78DA78DA59EA50197F1F705
:105950009EA78DA78FA598A9019798AB8FA78FA514
:1059600098A9009769F714C069A97AA98BA99CA97D
:105970000E94C600DC01CB0198AB8FA78FA598A928
:105980009CA78BA78BA59CA50197F1F79CA78BA73C
:1059900060E875E280E090E00E94F80B789480E087
:1059A00090E0A6E9B3E48FA398A7A9A7BAA76FA12F
:1059B00078A589A59AA520E030E04AEF54E40E943A
:1059C0009C02DC01CB018BA39CA3ADA3BEA36BA166
:1059D0007CA18DA19EA120E030E040E85FE30E9421
:1059E000A20488232CF481E090E09AA389A33FC00D
:1059F0006BA17CA18DA19EA120E03FEF4FE757E472
:105A00000E94420418164CF56FA178A589A59AA5A5
:105A100020E030E040E251E40E949C02DC01CB0136
:105A2000BC01CD010E94C600DC01CB019AA389A371
:105A30000FC088EC90E098A38F8F8F8D98A101976D
:105A4000F1F798A38F8F89A19AA101979AA389A3AF
:105A500089A19AA1009769F714C06BA17CA18DA1BF
:105A60009EA10E94C600DC01CB019AA389A389A153
:105A70009AA19E8F8D8F8D8D9E8D0197F1F79E8FB0
:105A80008D8F83E090E00E94672781E060E00E94B4
:105A9000BC1582E060E00E94FA268CE992E00E9448
:105AA0002C2660E072EC81E090E00E94F80B789484
:105AB0000E94183691E089278823D1F783E00E945D
:105AC000573680E00E94D13580E00E948A350E94DE
:105AD0003C37833039F48EEA92E022E832E0B901B3
